{
	"contracts/SusuBox.sol": {
		"SusuBox": {
			"abi": [
				{
					"anonymous": false,
					"inputs": [
						{
							"indexed": true,
							"internalType": "uint256",
							"name": "id",
							"type": "uint256"
						},
						{
							"indexed": false,
							"internalType": "uint256",
							"name": "amount",
							"type": "uint256"
						},
						{
							"indexed": false,
							"internalType": "uint256",
							"name": "timeStamp",
							"type": "uint256"
						}
					],
					"name": "Deposit",
					"type": "event"
				},
				{
					"inputs": [
						{
							"internalType": "uint256",
							"name": "amount",
							"type": "uint256"
						}
					],
					"name": "deposit",
					"outputs": [
						{
							"internalType": "string",
							"name": "",
							"type": "string"
						}
					],
					"stateMutability": "nonpayable",
					"type": "function"
				},
				{
					"inputs": [],
					"name": "getAllTransactions",
					"outputs": [
						{
							"components": [
								{
									"internalType": "uint256",
									"name": "id",
									"type": "uint256"
								},
								{
									"internalType": "uint256",
									"name": "amount",
									"type": "uint256"
								},
								{
									"internalType": "uint256",
									"name": "timeStamp",
									"type": "uint256"
								}
							],
							"internalType": "struct SusuBox.TransactionStruct[]",
							"name": "",
							"type": "tuple[]"
						}
					],
					"stateMutability": "view",
					"type": "function"
				},
				{
					"inputs": [],
					"name": "showBalance",
					"outputs": [
						{
							"internalType": "uint256",
							"name": "",
							"type": "uint256"
						}
					],
					"stateMutability": "view",
					"type": "function"
				},
				{
					"inputs": [
						{
							"internalType": "uint256",
							"name": "",
							"type": "uint256"
						}
					],
					"name": "transactions",
					"outputs": [
						{
							"internalType": "uint256",
							"name": "id",
							"type": "uint256"
						},
						{
							"internalType": "uint256",
							"name": "amount",
							"type": "uint256"
						},
						{
							"internalType": "uint256",
							"name": "timeStamp",
							"type": "uint256"
						}
					],
					"stateMutability": "view",
					"type": "function"
				},
				{
					"inputs": [],
					"name": "trxnId",
					"outputs": [
						{
							"internalType": "uint256",
							"name": "",
							"type": "uint256"
						}
					],
					"stateMutability": "view",
					"type": "function"
				},
				{
					"inputs": [
						{
							"internalType": "uint256",
							"name": "amount",
							"type": "uint256"
						}
					],
					"name": "withdraw",
					"outputs": [
						{
							"internalType": "string",
							"name": "",
							"type": "string"
						}
					],
					"stateMutability": "nonpayable",
					"type": "function"
				}
			],
			"devdoc": {
				"kind": "dev",
				"methods": {},
				"version": 1
			},
			"evm": {
				"assembly": "    /* \"contracts/SusuBox.sol\":92:1682  contract SusuBox{... */\n  mstore(0x40, 0x80)\n  callvalue\n  dup1\n  iszero\n  tag_1\n  jumpi\n  0x00\n  dup1\n  revert\ntag_1:\n  pop\n  dataSize(sub_0)\n  dup1\n  dataOffset(sub_0)\n  0x00\n  codecopy\n  0x00\n  return\nstop\n\nsub_0: assembly {\n        /* \"contracts/SusuBox.sol\":92:1682  contract SusuBox{... */\n      mstore(0x40, 0x80)\n      callvalue\n      dup1\n      iszero\n      tag_1\n      jumpi\n      0x00\n      dup1\n      revert\n    tag_1:\n      pop\n      jumpi(tag_2, lt(calldatasize, 0x04))\n      shr(0xe0, calldataload(0x00))\n      dup1\n      0x23f6178d\n      eq\n      tag_3\n      jumpi\n      dup1\n      0x27506f53\n      eq\n      tag_4\n      jumpi\n      dup1\n      0x2e1a7d4d\n      eq\n      tag_5\n      jumpi\n      dup1\n      0x81b2d07b\n      eq\n      tag_6\n      jumpi\n      dup1\n      0x9ace38c2\n      eq\n      tag_7\n      jumpi\n      dup1\n      0xb6b55f25\n      eq\n      tag_8\n      jumpi\n    tag_2:\n      0x00\n      dup1\n      revert\n        /* \"contracts/SusuBox.sol\":171:189  uint public trxnId */\n    tag_3:\n      tag_9\n      tag_10\n      jump\t// in\n    tag_9:\n      mload(0x40)\n      tag_11\n      swap2\n      swap1\n      tag_12\n      jump\t// in\n    tag_11:\n      mload(0x40)\n      dup1\n      swap2\n      sub\n      swap1\n      return\n        /* \"contracts/SusuBox.sol\":1558:1675  function getAllTransactions() public view returns (TransactionStruct[] memory) {... */\n    tag_4:\n      tag_13\n      tag_14\n      jump\t// in\n    tag_13:\n      mload(0x40)\n      tag_15\n      swap2\n      swap1\n      tag_16\n      jump\t// in\n    tag_15:\n      mload(0x40)\n      dup1\n      swap2\n      sub\n      swap1\n      return\n        /* \"contracts/SusuBox.sol\":1134:1512  function withdraw(uint amount) public returns(string memory) {... */\n    tag_5:\n      tag_17\n      0x04\n      dup1\n      calldatasize\n      sub\n      dup2\n      add\n      swap1\n      tag_18\n      swap2\n      swap1\n      tag_19\n      jump\t// in\n    tag_18:\n      tag_20\n      jump\t// in\n    tag_17:\n      mload(0x40)\n      tag_21\n      swap2\n      swap1\n      tag_22\n      jump\t// in\n    tag_21:\n      mload(0x40)\n      dup1\n      swap2\n      sub\n      swap1\n      return\n        /* \"contracts/SusuBox.sol\":234:305  function showBalance() public view returns (uint) {... */\n    tag_6:\n      tag_23\n      tag_24\n      jump\t// in\n    tag_23:\n      mload(0x40)\n      tag_25\n      swap2\n      swap1\n      tag_12\n      jump\t// in\n    tag_25:\n      mload(0x40)\n      dup1\n      swap2\n      sub\n      swap1\n      return\n        /* \"contracts/SusuBox.sol\":461:501  TransactionStruct [] public transactions */\n    tag_7:\n      tag_26\n      0x04\n      dup1\n      calldatasize\n      sub\n      dup2\n      add\n      swap1\n      tag_27\n      swap2\n      swap1\n      tag_19\n      jump\t// in\n    tag_27:\n      tag_28\n      jump\t// in\n    tag_26:\n      mload(0x40)\n      tag_29\n      swap4\n      swap3\n      swap2\n      swap1\n      tag_30\n      jump\t// in\n    tag_29:\n      mload(0x40)\n      dup1\n      swap2\n      sub\n      swap1\n      return\n        /* \"contracts/SusuBox.sol\":664:1091  function deposit(uint amount) public returns (string memory){... */\n    tag_8:\n      tag_31\n      0x04\n      dup1\n      calldatasize\n      sub\n      dup2\n      add\n      swap1\n      tag_32\n      swap2\n      swap1\n      tag_19\n      jump\t// in\n    tag_32:\n      tag_33\n      jump\t// in\n    tag_31:\n      mload(0x40)\n      tag_34\n      swap2\n      swap1\n      tag_22\n      jump\t// in\n    tag_34:\n      mload(0x40)\n      dup1\n      swap2\n      sub\n      swap1\n      return\n        /* \"contracts/SusuBox.sol\":171:189  uint public trxnId */\n    tag_10:\n      sload(0x01)\n      dup2\n      jump\t// out\n        /* \"contracts/SusuBox.sol\":1558:1675  function getAllTransactions() public view returns (TransactionStruct[] memory) {... */\n    tag_14:\n        /* \"contracts/SusuBox.sol\":1609:1635  TransactionStruct[] memory */\n      0x60\n        /* \"contracts/SusuBox.sol\":1655:1667  transactions */\n      0x02\n        /* \"contracts/SusuBox.sol\":1648:1667  return transactions */\n      dup1\n      sload\n      dup1\n      0x20\n      mul\n      0x20\n      add\n      mload(0x40)\n      swap1\n      dup2\n      add\n      0x40\n      mstore\n      dup1\n      swap3\n      swap2\n      swap1\n      dup2\n      dup2\n      mstore\n      0x20\n      add\n      0x00\n      swap1\n    tag_36:\n      dup3\n      dup3\n      lt\n      iszero\n      tag_37\n      jumpi\n      dup4\n      dup3\n      swap1\n      0x00\n      mstore\n      keccak256(0x00, 0x20)\n      swap1\n      0x03\n      mul\n      add\n      mload(0x40)\n      dup1\n      0x60\n      add\n      0x40\n      mstore\n      swap1\n      dup2\n      0x00\n      dup3\n      add\n      sload\n      dup2\n      mstore\n      0x20\n      add\n      0x01\n      dup3\n      add\n      sload\n      dup2\n      mstore\n      0x20\n      add\n      0x02\n      dup3\n      add\n      sload\n      dup2\n      mstore\n      pop\n      pop\n      dup2\n      mstore\n      0x20\n      add\n      swap1\n      0x01\n      add\n      swap1\n      jump(tag_36)\n    tag_37:\n      pop\n      pop\n      pop\n      pop\n      swap1\n      pop\n        /* \"contracts/SusuBox.sol\":1558:1675  function getAllTransactions() public view returns (TransactionStruct[] memory) {... */\n      swap1\n      jump\t// out\n        /* \"contracts/SusuBox.sol\":1134:1512  function withdraw(uint amount) public returns(string memory) {... */\n    tag_20:\n        /* \"contracts/SusuBox.sol\":1180:1193  string memory */\n      0x60\n        /* \"contracts/SusuBox.sol\":1224:1230  amount */\n      dup2\n        /* \"contracts/SusuBox.sol\":1214:1221  balance */\n      sload(0x00)\n        /* \"contracts/SusuBox.sol\":1214:1230  balance >=amount */\n      lt\n      iszero\n        /* \"contracts/SusuBox.sol\":1206:1248  require(balance >=amount,\"You are broke!\") */\n      tag_40\n      jumpi\n      mload(0x40)\n      0x08c379a000000000000000000000000000000000000000000000000000000000\n      dup2\n      mstore\n      0x04\n      add\n      tag_41\n      swap1\n      tag_42\n      jump\t// in\n    tag_41:\n      mload(0x40)\n      dup1\n      swap2\n      sub\n      swap1\n      revert\n    tag_40:\n        /* \"contracts/SusuBox.sol\":1271:1277  amount */\n      dup2\n        /* \"contracts/SusuBox.sol\":1260:1267  balance */\n      0x00\n      dup1\n        /* \"contracts/SusuBox.sol\":1260:1277  balance -= amount */\n      dup3\n      dup3\n      sload\n      tag_43\n      swap2\n      swap1\n      tag_44\n      jump\t// in\n    tag_43:\n      swap3\n      pop\n      pop\n      dup2\n      swap1\n      sstore\n      pop\n        /* \"contracts/SusuBox.sol\":1289:1295  trxnId */\n      0x01\n      0x00\n        /* \"contracts/SusuBox.sol\":1289:1298  trxnId ++ */\n      dup2\n      sload\n      dup1\n      swap3\n      swap2\n      swap1\n      tag_45\n      swap1\n      tag_46\n      jump\t// in\n    tag_45:\n      swap2\n      swap1\n      pop\n      sstore\n      pop\n        /* \"contracts/SusuBox.sol\":1313:1334  string memory message */\n      0x00\n        /* \"contracts/SusuBox.sol\":1313:1364  string memory message = \"Transaction is successful\" */\n      mload(0x40)\n      dup1\n      0x40\n      add\n      0x40\n      mstore\n      dup1\n      0x19\n      dup2\n      mstore\n      0x20\n      add\n      0x5472616e73616374696f6e206973207375636365737366756c00000000000000\n      dup2\n      mstore\n      pop\n      swap1\n      pop\n        /* \"contracts/SusuBox.sol\":1376:1388  transactions */\n      0x02\n        /* \"contracts/SusuBox.sol\":1394:1445  TransactionStruct(trxnId, amount , block.timestamp) */\n      mload(0x40)\n      dup1\n      0x60\n      add\n      0x40\n      mstore\n      dup1\n        /* \"contracts/SusuBox.sol\":1412:1418  trxnId */\n      sload(0x01)\n        /* \"contracts/SusuBox.sol\":1394:1445  TransactionStruct(trxnId, amount , block.timestamp) */\n      dup2\n      mstore\n      0x20\n      add\n        /* \"contracts/SusuBox.sol\":1420:1426  amount */\n      dup6\n        /* \"contracts/SusuBox.sol\":1394:1445  TransactionStruct(trxnId, amount , block.timestamp) */\n      dup2\n      mstore\n      0x20\n      add\n        /* \"contracts/SusuBox.sol\":1429:1444  block.timestamp */\n      timestamp\n        /* \"contracts/SusuBox.sol\":1394:1445  TransactionStruct(trxnId, amount , block.timestamp) */\n      dup2\n      mstore\n      pop\n        /* \"contracts/SusuBox.sol\":1376:1446  transactions.push(TransactionStruct(trxnId, amount , block.timestamp)) */\n      swap1\n      dup1\n      0x01\n      dup2\n      sload\n      add\n      dup1\n      dup3\n      sstore\n      dup1\n      swap2\n      pop\n      pop\n      0x01\n      swap1\n      sub\n      swap1\n      0x00\n      mstore\n      keccak256(0x00, 0x20)\n      swap1\n      0x03\n      mul\n      add\n      0x00\n      swap1\n      swap2\n      swap1\n      swap2\n      swap1\n      swap2\n      pop\n      0x00\n      dup3\n      add\n      mload\n      dup2\n      0x00\n      add\n      sstore\n      0x20\n      dup3\n      add\n      mload\n      dup2\n      0x01\n      add\n      sstore\n      0x40\n      dup3\n      add\n      mload\n      dup2\n      0x02\n      add\n      sstore\n      pop\n      pop\n        /* \"contracts/SusuBox.sol\":1496:1503  message */\n      dup1\n        /* \"contracts/SusuBox.sol\":1488:1503  return  message */\n      swap2\n      pop\n      pop\n        /* \"contracts/SusuBox.sol\":1134:1512  function withdraw(uint amount) public returns(string memory) {... */\n      swap2\n      swap1\n      pop\n      jump\t// out\n        /* \"contracts/SusuBox.sol\":234:305  function showBalance() public view returns (uint) {... */\n    tag_24:\n        /* \"contracts/SusuBox.sol\":278:282  uint */\n      0x00\n        /* \"contracts/SusuBox.sol\":294:301  balance */\n      dup1\n      sload\n        /* \"contracts/SusuBox.sol\":287:301  return balance */\n      swap1\n      pop\n        /* \"contracts/SusuBox.sol\":234:305  function showBalance() public view returns (uint) {... */\n      swap1\n      jump\t// out\n        /* \"contracts/SusuBox.sol\":461:501  TransactionStruct [] public transactions */\n    tag_28:\n      0x02\n      dup2\n      dup2\n      sload\n      dup2\n      lt\n      tag_49\n      jumpi\n      0x00\n      dup1\n      revert\n    tag_49:\n      swap1\n      0x00\n      mstore\n      keccak256(0x00, 0x20)\n      swap1\n      0x03\n      mul\n      add\n      0x00\n      swap2\n      pop\n      swap1\n      pop\n      dup1\n      0x00\n      add\n      sload\n      swap1\n      dup1\n      0x01\n      add\n      sload\n      swap1\n      dup1\n      0x02\n      add\n      sload\n      swap1\n      pop\n      dup4\n      jump\t// out\n        /* \"contracts/SusuBox.sol\":664:1091  function deposit(uint amount) public returns (string memory){... */\n    tag_33:\n        /* \"contracts/SusuBox.sol\":710:723  string memory */\n      0x60\n        /* \"contracts/SusuBox.sol\":746:752  amount */\n      dup2\n        /* \"contracts/SusuBox.sol\":735:742  balance */\n      0x00\n      dup1\n        /* \"contracts/SusuBox.sol\":735:752  balance += amount */\n      dup3\n      dup3\n      sload\n      tag_52\n      swap2\n      swap1\n      tag_53\n      jump\t// in\n    tag_52:\n      swap3\n      pop\n      pop\n      dup2\n      swap1\n      sstore\n      pop\n        /* \"contracts/SusuBox.sol\":763:769  trxnId */\n      0x01\n      0x00\n        /* \"contracts/SusuBox.sol\":763:772  trxnId ++ */\n      dup2\n      sload\n      dup1\n      swap3\n      swap2\n      swap1\n      tag_54\n      swap1\n      tag_46\n      jump\t// in\n    tag_54:\n      swap2\n      swap1\n      pop\n      sstore\n      pop\n        /* \"contracts/SusuBox.sol\":804:825  string memory message */\n      0x00\n        /* \"contracts/SusuBox.sol\":804:855  string memory message = \"Transaction is successful\" */\n      mload(0x40)\n      dup1\n      0x40\n      add\n      0x40\n      mstore\n      dup1\n      0x19\n      dup2\n      mstore\n      0x20\n      add\n      0x5472616e73616374696f6e206973207375636365737366756c00000000000000\n      dup2\n      mstore\n      pop\n      swap1\n      pop\n        /* \"contracts/SusuBox.sol\":868:880  transactions */\n      0x02\n        /* \"contracts/SusuBox.sol\":886:937  TransactionStruct(trxnId, amount , block.timestamp) */\n      mload(0x40)\n      dup1\n      0x60\n      add\n      0x40\n      mstore\n      dup1\n        /* \"contracts/SusuBox.sol\":904:910  trxnId */\n      sload(0x01)\n        /* \"contracts/SusuBox.sol\":886:937  TransactionStruct(trxnId, amount , block.timestamp) */\n      dup2\n      mstore\n      0x20\n      add\n        /* \"contracts/SusuBox.sol\":912:918  amount */\n      dup6\n        /* \"contracts/SusuBox.sol\":886:937  TransactionStruct(trxnId, amount , block.timestamp) */\n      dup2\n      mstore\n      0x20\n      add\n        /* \"contracts/SusuBox.sol\":921:936  block.timestamp */\n      timestamp\n        /* \"contracts/SusuBox.sol\":886:937  TransactionStruct(trxnId, amount , block.timestamp) */\n      dup2\n      mstore\n      pop\n        /* \"contracts/SusuBox.sol\":868:938  transactions.push(TransactionStruct(trxnId, amount , block.timestamp)) */\n      swap1\n      dup1\n      0x01\n      dup2\n      sload\n      add\n      dup1\n      dup3\n      sstore\n      dup1\n      swap2\n      pop\n      pop\n      0x01\n      swap1\n      sub\n      swap1\n      0x00\n      mstore\n      keccak256(0x00, 0x20)\n      swap1\n      0x03\n      mul\n      add\n      0x00\n      swap1\n      swap2\n      swap1\n      swap2\n      swap1\n      swap2\n      pop\n      0x00\n      dup3\n      add\n      mload\n      dup2\n      0x00\n      add\n      sstore\n      0x20\n      dup3\n      add\n      mload\n      dup2\n      0x01\n      add\n      sstore\n      0x40\n      dup3\n      add\n      mload\n      dup2\n      0x02\n      add\n      sstore\n      pop\n      pop\n        /* \"contracts/SusuBox.sol\":971:977  trxnId */\n      sload(0x01)\n        /* \"contracts/SusuBox.sol\":963:1003  Deposit(trxnId, amount, block.timestamp) */\n      0x33da4f9b82b3e18a281ca2cabbe2f076925692abb593b7ea3f850009e8ec9770\n        /* \"contracts/SusuBox.sol\":979:985  amount */\n      dup5\n        /* \"contracts/SusuBox.sol\":987:1002  block.timestamp */\n      timestamp\n        /* \"contracts/SusuBox.sol\":963:1003  Deposit(trxnId, amount, block.timestamp) */\n      mload(0x40)\n      tag_56\n      swap3\n      swap2\n      swap1\n      tag_57\n      jump\t// in\n    tag_56:\n      mload(0x40)\n      dup1\n      swap2\n      sub\n      swap1\n      log2\n        /* \"contracts/SusuBox.sol\":1076:1083  message */\n      dup1\n        /* \"contracts/SusuBox.sol\":1068:1083  return  message */\n      swap2\n      pop\n      pop\n        /* \"contracts/SusuBox.sol\":664:1091  function deposit(uint amount) public returns (string memory){... */\n      swap2\n      swap1\n      pop\n      jump\t// out\n        /* \"#utility.yul\":7:84   */\n    tag_58:\n        /* \"#utility.yul\":44:51   */\n      0x00\n        /* \"#utility.yul\":73:78   */\n      dup2\n        /* \"#utility.yul\":62:78   */\n      swap1\n      pop\n        /* \"#utility.yul\":7:84   */\n      swap2\n      swap1\n      pop\n      jump\t// out\n        /* \"#utility.yul\":90:208   */\n    tag_59:\n        /* \"#utility.yul\":177:201   */\n      tag_84\n        /* \"#utility.yul\":195:200   */\n      dup2\n        /* \"#utility.yul\":177:201   */\n      tag_58\n      jump\t// in\n    tag_84:\n        /* \"#utility.yul\":172:175   */\n      dup3\n        /* \"#utility.yul\":165:202   */\n      mstore\n        /* \"#utility.yul\":90:208   */\n      pop\n      pop\n      jump\t// out\n        /* \"#utility.yul\":214:436   */\n    tag_12:\n        /* \"#utility.yul\":307:311   */\n      0x00\n        /* \"#utility.yul\":345:347   */\n      0x20\n        /* \"#utility.yul\":334:343   */\n      dup3\n        /* \"#utility.yul\":330:348   */\n      add\n        /* \"#utility.yul\":322:348   */\n      swap1\n      pop\n        /* \"#utility.yul\":358:429   */\n      tag_86\n        /* \"#utility.yul\":426:427   */\n      0x00\n        /* \"#utility.yul\":415:424   */\n      dup4\n        /* \"#utility.yul\":411:428   */\n      add\n        /* \"#utility.yul\":402:408   */\n      dup5\n        /* \"#utility.yul\":358:429   */\n      tag_59\n      jump\t// in\n    tag_86:\n        /* \"#utility.yul\":214:436   */\n      swap3\n      swap2\n      pop\n      pop\n      jump\t// out\n        /* \"#utility.yul\":442:589   */\n    tag_60:\n        /* \"#utility.yul\":542:548   */\n      0x00\n        /* \"#utility.yul\":576:581   */\n      dup2\n        /* \"#utility.yul\":570:582   */\n      mload\n        /* \"#utility.yul\":560:582   */\n      swap1\n      pop\n        /* \"#utility.yul\":442:589   */\n      swap2\n      swap1\n      pop\n      jump\t// out\n        /* \"#utility.yul\":595:812   */\n    tag_61:\n        /* \"#utility.yul\":727:738   */\n      0x00\n        /* \"#utility.yul\":761:767   */\n      dup3\n        /* \"#utility.yul\":756:759   */\n      dup3\n        /* \"#utility.yul\":749:768   */\n      mstore\n        /* \"#utility.yul\":801:805   */\n      0x20\n        /* \"#utility.yul\":796:799   */\n      dup3\n        /* \"#utility.yul\":792:806   */\n      add\n        /* \"#utility.yul\":777:806   */\n      swap1\n      pop\n        /* \"#utility.yul\":595:812   */\n      swap3\n      swap2\n      pop\n      pop\n      jump\t// out\n        /* \"#utility.yul\":818:983   */\n    tag_62:\n        /* \"#utility.yul\":918:922   */\n      0x00\n        /* \"#utility.yul\":941:944   */\n      dup2\n        /* \"#utility.yul\":933:944   */\n      swap1\n      pop\n        /* \"#utility.yul\":971:975   */\n      0x20\n        /* \"#utility.yul\":966:969   */\n      dup3\n        /* \"#utility.yul\":962:976   */\n      add\n        /* \"#utility.yul\":954:976   */\n      swap1\n      pop\n        /* \"#utility.yul\":818:983   */\n      swap2\n      swap1\n      pop\n      jump\t// out\n        /* \"#utility.yul\":989:1097   */\n    tag_63:\n        /* \"#utility.yul\":1066:1090   */\n      tag_91\n        /* \"#utility.yul\":1084:1089   */\n      dup2\n        /* \"#utility.yul\":1066:1090   */\n      tag_58\n      jump\t// in\n    tag_91:\n        /* \"#utility.yul\":1061:1064   */\n      dup3\n        /* \"#utility.yul\":1054:1091   */\n      mstore\n        /* \"#utility.yul\":989:1097   */\n      pop\n      pop\n      jump\t// out\n        /* \"#utility.yul\":1179:1871   */\n    tag_64:\n        /* \"#utility.yul\":1332:1336   */\n      0x60\n        /* \"#utility.yul\":1327:1330   */\n      dup3\n        /* \"#utility.yul\":1323:1337   */\n      add\n        /* \"#utility.yul\":1417:1421   */\n      0x00\n        /* \"#utility.yul\":1410:1415   */\n      dup3\n        /* \"#utility.yul\":1406:1422   */\n      add\n        /* \"#utility.yul\":1400:1423   */\n      mload\n        /* \"#utility.yul\":1436:1499   */\n      tag_93\n        /* \"#utility.yul\":1493:1497   */\n      0x00\n        /* \"#utility.yul\":1488:1491   */\n      dup6\n        /* \"#utility.yul\":1484:1498   */\n      add\n        /* \"#utility.yul\":1470:1482   */\n      dup3\n        /* \"#utility.yul\":1436:1499   */\n      tag_63\n      jump\t// in\n    tag_93:\n        /* \"#utility.yul\":1347:1509   */\n      pop\n        /* \"#utility.yul\":1593:1597   */\n      0x20\n        /* \"#utility.yul\":1586:1591   */\n      dup3\n        /* \"#utility.yul\":1582:1598   */\n      add\n        /* \"#utility.yul\":1576:1599   */\n      mload\n        /* \"#utility.yul\":1612:1675   */\n      tag_94\n        /* \"#utility.yul\":1669:1673   */\n      0x20\n        /* \"#utility.yul\":1664:1667   */\n      dup6\n        /* \"#utility.yul\":1660:1674   */\n      add\n        /* \"#utility.yul\":1646:1658   */\n      dup3\n        /* \"#utility.yul\":1612:1675   */\n      tag_63\n      jump\t// in\n    tag_94:\n        /* \"#utility.yul\":1519:1685   */\n      pop\n        /* \"#utility.yul\":1772:1776   */\n      0x40\n        /* \"#utility.yul\":1765:1770   */\n      dup3\n        /* \"#utility.yul\":1761:1777   */\n      add\n        /* \"#utility.yul\":1755:1778   */\n      mload\n        /* \"#utility.yul\":1791:1854   */\n      tag_95\n        /* \"#utility.yul\":1848:1852   */\n      0x40\n        /* \"#utility.yul\":1843:1846   */\n      dup6\n        /* \"#utility.yul\":1839:1853   */\n      add\n        /* \"#utility.yul\":1825:1837   */\n      dup3\n        /* \"#utility.yul\":1791:1854   */\n      tag_63\n      jump\t// in\n    tag_95:\n        /* \"#utility.yul\":1695:1864   */\n      pop\n        /* \"#utility.yul\":1301:1871   */\n      pop\n        /* \"#utility.yul\":1179:1871   */\n      pop\n      pop\n      jump\t// out\n        /* \"#utility.yul\":1877:2188   */\n    tag_65:\n        /* \"#utility.yul\":2012:2022   */\n      0x00\n        /* \"#utility.yul\":2033:2145   */\n      tag_97\n        /* \"#utility.yul\":2141:2144   */\n      dup4\n        /* \"#utility.yul\":2133:2139   */\n      dup4\n        /* \"#utility.yul\":2033:2145   */\n      tag_64\n      jump\t// in\n    tag_97:\n        /* \"#utility.yul\":2177:2181   */\n      0x60\n        /* \"#utility.yul\":2172:2175   */\n      dup4\n        /* \"#utility.yul\":2168:2182   */\n      add\n        /* \"#utility.yul\":2154:2182   */\n      swap1\n      pop\n        /* \"#utility.yul\":1877:2188   */\n      swap3\n      swap2\n      pop\n      pop\n      jump\t// out\n        /* \"#utility.yul\":2194:2340   */\n    tag_66:\n        /* \"#utility.yul\":2297:2301   */\n      0x00\n        /* \"#utility.yul\":2329:2333   */\n      0x20\n        /* \"#utility.yul\":2324:2327   */\n      dup3\n        /* \"#utility.yul\":2320:2334   */\n      add\n        /* \"#utility.yul\":2312:2334   */\n      swap1\n      pop\n        /* \"#utility.yul\":2194:2340   */\n      swap2\n      swap1\n      pop\n      jump\t// out\n        /* \"#utility.yul\":2426:3422   */\n    tag_67:\n        /* \"#utility.yul\":2611:2614   */\n      0x00\n        /* \"#utility.yul\":2640:2727   */\n      tag_100\n        /* \"#utility.yul\":2721:2726   */\n      dup3\n        /* \"#utility.yul\":2640:2727   */\n      tag_60\n      jump\t// in\n    tag_100:\n        /* \"#utility.yul\":2743:2862   */\n      tag_101\n        /* \"#utility.yul\":2855:2861   */\n      dup2\n        /* \"#utility.yul\":2850:2853   */\n      dup6\n        /* \"#utility.yul\":2743:2862   */\n      tag_61\n      jump\t// in\n    tag_101:\n        /* \"#utility.yul\":2736:2862   */\n      swap4\n      pop\n        /* \"#utility.yul\":2886:2975   */\n      tag_102\n        /* \"#utility.yul\":2969:2974   */\n      dup4\n        /* \"#utility.yul\":2886:2975   */\n      tag_62\n      jump\t// in\n    tag_102:\n        /* \"#utility.yul\":2998:3005   */\n      dup1\n        /* \"#utility.yul\":3029:3030   */\n      0x00\n        /* \"#utility.yul\":3014:3397   */\n    tag_103:\n        /* \"#utility.yul\":3039:3045   */\n      dup4\n        /* \"#utility.yul\":3036:3037   */\n      dup2\n        /* \"#utility.yul\":3033:3046   */\n      lt\n        /* \"#utility.yul\":3014:3397   */\n      iszero\n      tag_105\n      jumpi\n        /* \"#utility.yul\":3115:3121   */\n      dup2\n        /* \"#utility.yul\":3109:3122   */\n      mload\n        /* \"#utility.yul\":3142:3271   */\n      tag_106\n        /* \"#utility.yul\":3267:3270   */\n      dup9\n        /* \"#utility.yul\":3252:3265   */\n      dup3\n        /* \"#utility.yul\":3142:3271   */\n      tag_65\n      jump\t// in\n    tag_106:\n        /* \"#utility.yul\":3135:3271   */\n      swap8\n      pop\n        /* \"#utility.yul\":3294:3387   */\n      tag_107\n        /* \"#utility.yul\":3380:3386   */\n      dup4\n        /* \"#utility.yul\":3294:3387   */\n      tag_66\n      jump\t// in\n    tag_107:\n        /* \"#utility.yul\":3284:3387   */\n      swap3\n      pop\n        /* \"#utility.yul\":3074:3397   */\n      pop\n        /* \"#utility.yul\":3061:3062   */\n      0x01\n        /* \"#utility.yul\":3058:3059   */\n      dup2\n        /* \"#utility.yul\":3054:3063   */\n      add\n        /* \"#utility.yul\":3049:3063   */\n      swap1\n      pop\n        /* \"#utility.yul\":3014:3397   */\n      jump(tag_103)\n    tag_105:\n        /* \"#utility.yul\":3018:3032   */\n      pop\n        /* \"#utility.yul\":3413:3416   */\n      dup6\n        /* \"#utility.yul\":3406:3416   */\n      swap4\n      pop\n        /* \"#utility.yul\":2616:3422   */\n      pop\n      pop\n      pop\n        /* \"#utility.yul\":2426:3422   */\n      swap3\n      swap2\n      pop\n      pop\n      jump\t// out\n        /* \"#utility.yul\":3428:3933   */\n    tag_16:\n        /* \"#utility.yul\":3637:3641   */\n      0x00\n        /* \"#utility.yul\":3675:3677   */\n      0x20\n        /* \"#utility.yul\":3664:3673   */\n      dup3\n        /* \"#utility.yul\":3660:3678   */\n      add\n        /* \"#utility.yul\":3652:3678   */\n      swap1\n      pop\n        /* \"#utility.yul\":3724:3733   */\n      dup2\n        /* \"#utility.yul\":3718:3722   */\n      dup2\n        /* \"#utility.yul\":3714:3734   */\n      sub\n        /* \"#utility.yul\":3710:3711   */\n      0x00\n        /* \"#utility.yul\":3699:3708   */\n      dup4\n        /* \"#utility.yul\":3695:3712   */\n      add\n        /* \"#utility.yul\":3688:3735   */\n      mstore\n        /* \"#utility.yul\":3752:3926   */\n      tag_109\n        /* \"#utility.yul\":3921:3925   */\n      dup2\n        /* \"#utility.yul\":3912:3918   */\n      dup5\n        /* \"#utility.yul\":3752:3926   */\n      tag_67\n      jump\t// in\n    tag_109:\n        /* \"#utility.yul\":3744:3926   */\n      swap1\n      pop\n        /* \"#utility.yul\":3428:3933   */\n      swap3\n      swap2\n      pop\n      pop\n      jump\t// out\n        /* \"#utility.yul\":4020:4137   */\n    tag_69:\n        /* \"#utility.yul\":4129:4130   */\n      0x00\n        /* \"#utility.yul\":4126:4127   */\n      dup1\n        /* \"#utility.yul\":4119:4131   */\n      revert\n        /* \"#utility.yul\":4266:4388   */\n    tag_71:\n        /* \"#utility.yul\":4339:4363   */\n      tag_114\n        /* \"#utility.yul\":4357:4362   */\n      dup2\n        /* \"#utility.yul\":4339:4363   */\n      tag_58\n      jump\t// in\n    tag_114:\n        /* \"#utility.yul\":4332:4337   */\n      dup2\n        /* \"#utility.yul\":4329:4364   */\n      eq\n        /* \"#utility.yul\":4319:4382   */\n      tag_115\n      jumpi\n        /* \"#utility.yul\":4378:4379   */\n      0x00\n        /* \"#utility.yul\":4375:4376   */\n      dup1\n        /* \"#utility.yul\":4368:4380   */\n      revert\n        /* \"#utility.yul\":4319:4382   */\n    tag_115:\n        /* \"#utility.yul\":4266:4388   */\n      pop\n      jump\t// out\n        /* \"#utility.yul\":4394:4533   */\n    tag_72:\n        /* \"#utility.yul\":4440:4445   */\n      0x00\n        /* \"#utility.yul\":4478:4484   */\n      dup2\n        /* \"#utility.yul\":4465:4485   */\n      calldataload\n        /* \"#utility.yul\":4456:4485   */\n      swap1\n      pop\n        /* \"#utility.yul\":4494:4527   */\n      tag_117\n        /* \"#utility.yul\":4521:4526   */\n      dup2\n        /* \"#utility.yul\":4494:4527   */\n      tag_71\n      jump\t// in\n    tag_117:\n        /* \"#utility.yul\":4394:4533   */\n      swap3\n      swap2\n      pop\n      pop\n      jump\t// out\n        /* \"#utility.yul\":4539:4868   */\n    tag_19:\n        /* \"#utility.yul\":4598:4604   */\n      0x00\n        /* \"#utility.yul\":4647:4649   */\n      0x20\n        /* \"#utility.yul\":4635:4644   */\n      dup3\n        /* \"#utility.yul\":4626:4633   */\n      dup5\n        /* \"#utility.yul\":4622:4645   */\n      sub\n        /* \"#utility.yul\":4618:4650   */\n      slt\n        /* \"#utility.yul\":4615:4734   */\n      iszero\n      tag_119\n      jumpi\n        /* \"#utility.yul\":4653:4732   */\n      tag_120\n      tag_69\n      jump\t// in\n    tag_120:\n        /* \"#utility.yul\":4615:4734   */\n    tag_119:\n        /* \"#utility.yul\":4773:4774   */\n      0x00\n        /* \"#utility.yul\":4798:4851   */\n      tag_121\n        /* \"#utility.yul\":4843:4850   */\n      dup5\n        /* \"#utility.yul\":4834:4840   */\n      dup3\n        /* \"#utility.yul\":4823:4832   */\n      dup6\n        /* \"#utility.yul\":4819:4841   */\n      add\n        /* \"#utility.yul\":4798:4851   */\n      tag_72\n      jump\t// in\n    tag_121:\n        /* \"#utility.yul\":4788:4851   */\n      swap2\n      pop\n        /* \"#utility.yul\":4744:4861   */\n      pop\n        /* \"#utility.yul\":4539:4868   */\n      swap3\n      swap2\n      pop\n      pop\n      jump\t// out\n        /* \"#utility.yul\":4874:4973   */\n    tag_73:\n        /* \"#utility.yul\":4926:4932   */\n      0x00\n        /* \"#utility.yul\":4960:4965   */\n      dup2\n        /* \"#utility.yul\":4954:4966   */\n      mload\n        /* \"#utility.yul\":4944:4966   */\n      swap1\n      pop\n        /* \"#utility.yul\":4874:4973   */\n      swap2\n      swap1\n      pop\n      jump\t// out\n        /* \"#utility.yul\":4979:5148   */\n    tag_74:\n        /* \"#utility.yul\":5063:5074   */\n      0x00\n        /* \"#utility.yul\":5097:5103   */\n      dup3\n        /* \"#utility.yul\":5092:5095   */\n      dup3\n        /* \"#utility.yul\":5085:5104   */\n      mstore\n        /* \"#utility.yul\":5137:5141   */\n      0x20\n        /* \"#utility.yul\":5132:5135   */\n      dup3\n        /* \"#utility.yul\":5128:5142   */\n      add\n        /* \"#utility.yul\":5113:5142   */\n      swap1\n      pop\n        /* \"#utility.yul\":4979:5148   */\n      swap3\n      swap2\n      pop\n      pop\n      jump\t// out\n        /* \"#utility.yul\":5154:5293   */\n    tag_75:\n        /* \"#utility.yul\":5243:5249   */\n      dup3\n        /* \"#utility.yul\":5238:5241   */\n      dup2\n        /* \"#utility.yul\":5233:5236   */\n      dup4\n        /* \"#utility.yul\":5227:5250   */\n      mcopy\n        /* \"#utility.yul\":5284:5285   */\n      0x00\n        /* \"#utility.yul\":5275:5281   */\n      dup4\n        /* \"#utility.yul\":5270:5273   */\n      dup4\n        /* \"#utility.yul\":5266:5282   */\n      add\n        /* \"#utility.yul\":5259:5286   */\n      mstore\n        /* \"#utility.yul\":5154:5293   */\n      pop\n      pop\n      pop\n      jump\t// out\n        /* \"#utility.yul\":5299:5401   */\n    tag_76:\n        /* \"#utility.yul\":5340:5346   */\n      0x00\n        /* \"#utility.yul\":5391:5393   */\n      0x1f\n        /* \"#utility.yul\":5387:5394   */\n      not\n        /* \"#utility.yul\":5382:5384   */\n      0x1f\n        /* \"#utility.yul\":5375:5380   */\n      dup4\n        /* \"#utility.yul\":5371:5385   */\n      add\n        /* \"#utility.yul\":5367:5395   */\n      and\n        /* \"#utility.yul\":5357:5395   */\n      swap1\n      pop\n        /* \"#utility.yul\":5299:5401   */\n      swap2\n      swap1\n      pop\n      jump\t// out\n        /* \"#utility.yul\":5407:5784   */\n    tag_77:\n        /* \"#utility.yul\":5495:5498   */\n      0x00\n        /* \"#utility.yul\":5523:5562   */\n      tag_127\n        /* \"#utility.yul\":5556:5561   */\n      dup3\n        /* \"#utility.yul\":5523:5562   */\n      tag_73\n      jump\t// in\n    tag_127:\n        /* \"#utility.yul\":5578:5649   */\n      tag_128\n        /* \"#utility.yul\":5642:5648   */\n      dup2\n        /* \"#utility.yul\":5637:5640   */\n      dup6\n        /* \"#utility.yul\":5578:5649   */\n      tag_74\n      jump\t// in\n    tag_128:\n        /* \"#utility.yul\":5571:5649   */\n      swap4\n      pop\n        /* \"#utility.yul\":5658:5723   */\n      tag_129\n        /* \"#utility.yul\":5716:5722   */\n      dup2\n        /* \"#utility.yul\":5711:5714   */\n      dup6\n        /* \"#utility.yul\":5704:5708   */\n      0x20\n        /* \"#utility.yul\":5697:5702   */\n      dup7\n        /* \"#utility.yul\":5693:5709   */\n      add\n        /* \"#utility.yul\":5658:5723   */\n      tag_75\n      jump\t// in\n    tag_129:\n        /* \"#utility.yul\":5748:5777   */\n      tag_130\n        /* \"#utility.yul\":5770:5776   */\n      dup2\n        /* \"#utility.yul\":5748:5777   */\n      tag_76\n      jump\t// in\n    tag_130:\n        /* \"#utility.yul\":5743:5746   */\n      dup5\n        /* \"#utility.yul\":5739:5778   */\n      add\n        /* \"#utility.yul\":5732:5778   */\n      swap2\n      pop\n        /* \"#utility.yul\":5499:5784   */\n      pop\n        /* \"#utility.yul\":5407:5784   */\n      swap3\n      swap2\n      pop\n      pop\n      jump\t// out\n        /* \"#utility.yul\":5790:6103   */\n    tag_22:\n        /* \"#utility.yul\":5903:5907   */\n      0x00\n        /* \"#utility.yul\":5941:5943   */\n      0x20\n        /* \"#utility.yul\":5930:5939   */\n      dup3\n        /* \"#utility.yul\":5926:5944   */\n      add\n        /* \"#utility.yul\":5918:5944   */\n      swap1\n      pop\n        /* \"#utility.yul\":5990:5999   */\n      dup2\n        /* \"#utility.yul\":5984:5988   */\n      dup2\n        /* \"#utility.yul\":5980:6000   */\n      sub\n        /* \"#utility.yul\":5976:5977   */\n      0x00\n        /* \"#utility.yul\":5965:5974   */\n      dup4\n        /* \"#utility.yul\":5961:5978   */\n      add\n        /* \"#utility.yul\":5954:6001   */\n      mstore\n        /* \"#utility.yul\":6018:6096   */\n      tag_132\n        /* \"#utility.yul\":6091:6095   */\n      dup2\n        /* \"#utility.yul\":6082:6088   */\n      dup5\n        /* \"#utility.yul\":6018:6096   */\n      tag_77\n      jump\t// in\n    tag_132:\n        /* \"#utility.yul\":6010:6096   */\n      swap1\n      pop\n        /* \"#utility.yul\":5790:6103   */\n      swap3\n      swap2\n      pop\n      pop\n      jump\t// out\n        /* \"#utility.yul\":6109:6551   */\n    tag_30:\n        /* \"#utility.yul\":6258:6262   */\n      0x00\n        /* \"#utility.yul\":6296:6298   */\n      0x60\n        /* \"#utility.yul\":6285:6294   */\n      dup3\n        /* \"#utility.yul\":6281:6299   */\n      add\n        /* \"#utility.yul\":6273:6299   */\n      swap1\n      pop\n        /* \"#utility.yul\":6309:6380   */\n      tag_134\n        /* \"#utility.yul\":6377:6378   */\n      0x00\n        /* \"#utility.yul\":6366:6375   */\n      dup4\n        /* \"#utility.yul\":6362:6379   */\n      add\n        /* \"#utility.yul\":6353:6359   */\n      dup7\n        /* \"#utility.yul\":6309:6380   */\n      tag_59\n      jump\t// in\n    tag_134:\n        /* \"#utility.yul\":6390:6462   */\n      tag_135\n        /* \"#utility.yul\":6458:6460   */\n      0x20\n        /* \"#utility.yul\":6447:6456   */\n      dup4\n        /* \"#utility.yul\":6443:6461   */\n      add\n        /* \"#utility.yul\":6434:6440   */\n      dup6\n        /* \"#utility.yul\":6390:6462   */\n      tag_59\n      jump\t// in\n    tag_135:\n        /* \"#utility.yul\":6472:6544   */\n      tag_136\n        /* \"#utility.yul\":6540:6542   */\n      0x40\n        /* \"#utility.yul\":6529:6538   */\n      dup4\n        /* \"#utility.yul\":6525:6543   */\n      add\n        /* \"#utility.yul\":6516:6522   */\n      dup5\n        /* \"#utility.yul\":6472:6544   */\n      tag_59\n      jump\t// in\n    tag_136:\n        /* \"#utility.yul\":6109:6551   */\n      swap5\n      swap4\n      pop\n      pop\n      pop\n      pop\n      jump\t// out\n        /* \"#utility.yul\":6557:6721   */\n    tag_78:\n        /* \"#utility.yul\":6697:6713   */\n      0x596f75206172652062726f6b6521000000000000000000000000000000000000\n        /* \"#utility.yul\":6693:6694   */\n      0x00\n        /* \"#utility.yul\":6685:6691   */\n      dup3\n        /* \"#utility.yul\":6681:6695   */\n      add\n        /* \"#utility.yul\":6674:6714   */\n      mstore\n        /* \"#utility.yul\":6557:6721   */\n      pop\n      jump\t// out\n        /* \"#utility.yul\":6727:7093   */\n    tag_79:\n        /* \"#utility.yul\":6869:6872   */\n      0x00\n        /* \"#utility.yul\":6890:6957   */\n      tag_139\n        /* \"#utility.yul\":6954:6956   */\n      0x0e\n        /* \"#utility.yul\":6949:6952   */\n      dup4\n        /* \"#utility.yul\":6890:6957   */\n      tag_74\n      jump\t// in\n    tag_139:\n        /* \"#utility.yul\":6883:6957   */\n      swap2\n      pop\n        /* \"#utility.yul\":6966:7059   */\n      tag_140\n        /* \"#utility.yul\":7055:7058   */\n      dup3\n        /* \"#utility.yul\":6966:7059   */\n      tag_78\n      jump\t// in\n    tag_140:\n        /* \"#utility.yul\":7084:7086   */\n      0x20\n        /* \"#utility.yul\":7079:7082   */\n      dup3\n        /* \"#utility.yul\":7075:7087   */\n      add\n        /* \"#utility.yul\":7068:7087   */\n      swap1\n      pop\n        /* \"#utility.yul\":6727:7093   */\n      swap2\n      swap1\n      pop\n      jump\t// out\n        /* \"#utility.yul\":7099:7518   */\n    tag_42:\n        /* \"#utility.yul\":7265:7269   */\n      0x00\n        /* \"#utility.yul\":7303:7305   */\n      0x20\n        /* \"#utility.yul\":7292:7301   */\n      dup3\n        /* \"#utility.yul\":7288:7306   */\n      add\n        /* \"#utility.yul\":7280:7306   */\n      swap1\n      pop\n        /* \"#utility.yul\":7352:7361   */\n      dup2\n        /* \"#utility.yul\":7346:7350   */\n      dup2\n        /* \"#utility.yul\":7342:7362   */\n      sub\n        /* \"#utility.yul\":7338:7339   */\n      0x00\n        /* \"#utility.yul\":7327:7336   */\n      dup4\n        /* \"#utility.yul\":7323:7340   */\n      add\n        /* \"#utility.yul\":7316:7363   */\n      mstore\n        /* \"#utility.yul\":7380:7511   */\n      tag_142\n        /* \"#utility.yul\":7506:7510   */\n      dup2\n        /* \"#utility.yul\":7380:7511   */\n      tag_79\n      jump\t// in\n    tag_142:\n        /* \"#utility.yul\":7372:7511   */\n      swap1\n      pop\n        /* \"#utility.yul\":7099:7518   */\n      swap2\n      swap1\n      pop\n      jump\t// out\n        /* \"#utility.yul\":7524:7704   */\n    tag_80:\n        /* \"#utility.yul\":7572:7649   */\n      0x4e487b7100000000000000000000000000000000000000000000000000000000\n        /* \"#utility.yul\":7569:7570   */\n      0x00\n        /* \"#utility.yul\":7562:7650   */\n      mstore\n        /* \"#utility.yul\":7669:7673   */\n      0x11\n        /* \"#utility.yul\":7666:7667   */\n      0x04\n        /* \"#utility.yul\":7659:7674   */\n      mstore\n        /* \"#utility.yul\":7693:7697   */\n      0x24\n        /* \"#utility.yul\":7690:7691   */\n      0x00\n        /* \"#utility.yul\":7683:7698   */\n      revert\n        /* \"#utility.yul\":7710:7904   */\n    tag_44:\n        /* \"#utility.yul\":7750:7754   */\n      0x00\n        /* \"#utility.yul\":7770:7790   */\n      tag_145\n        /* \"#utility.yul\":7788:7789   */\n      dup3\n        /* \"#utility.yul\":7770:7790   */\n      tag_58\n      jump\t// in\n    tag_145:\n        /* \"#utility.yul\":7765:7790   */\n      swap2\n      pop\n        /* \"#utility.yul\":7804:7824   */\n      tag_146\n        /* \"#utility.yul\":7822:7823   */\n      dup4\n        /* \"#utility.yul\":7804:7824   */\n      tag_58\n      jump\t// in\n    tag_146:\n        /* \"#utility.yul\":7799:7824   */\n      swap3\n      pop\n        /* \"#utility.yul\":7848:7849   */\n      dup3\n        /* \"#utility.yul\":7845:7846   */\n      dup3\n        /* \"#utility.yul\":7841:7850   */\n      sub\n        /* \"#utility.yul\":7833:7850   */\n      swap1\n      pop\n        /* \"#utility.yul\":7872:7873   */\n      dup2\n        /* \"#utility.yul\":7866:7870   */\n      dup2\n        /* \"#utility.yul\":7863:7874   */\n      gt\n        /* \"#utility.yul\":7860:7897   */\n      iszero\n      tag_147\n      jumpi\n        /* \"#utility.yul\":7877:7895   */\n      tag_148\n      tag_80\n      jump\t// in\n    tag_148:\n        /* \"#utility.yul\":7860:7897   */\n    tag_147:\n        /* \"#utility.yul\":7710:7904   */\n      swap3\n      swap2\n      pop\n      pop\n      jump\t// out\n        /* \"#utility.yul\":7910:8143   */\n    tag_46:\n        /* \"#utility.yul\":7949:7952   */\n      0x00\n        /* \"#utility.yul\":7972:7996   */\n      tag_150\n        /* \"#utility.yul\":7990:7995   */\n      dup3\n        /* \"#utility.yul\":7972:7996   */\n      tag_58\n      jump\t// in\n    tag_150:\n        /* \"#utility.yul\":7963:7996   */\n      swap2\n      pop\n        /* \"#utility.yul\":8018:8084   */\n      0xffffffffffffffffffffffffffffffffffffffffffffffffffffffffffffffff\n        /* \"#utility.yul\":8011:8016   */\n      dup3\n        /* \"#utility.yul\":8008:8085   */\n      sub\n        /* \"#utility.yul\":8005:8108   */\n      tag_151\n      jumpi\n        /* \"#utility.yul\":8088:8106   */\n      tag_152\n      tag_80\n      jump\t// in\n    tag_152:\n        /* \"#utility.yul\":8005:8108   */\n    tag_151:\n        /* \"#utility.yul\":8135:8136   */\n      0x01\n        /* \"#utility.yul\":8128:8133   */\n      dup3\n        /* \"#utility.yul\":8124:8137   */\n      add\n        /* \"#utility.yul\":8117:8137   */\n      swap1\n      pop\n        /* \"#utility.yul\":7910:8143   */\n      swap2\n      swap1\n      pop\n      jump\t// out\n        /* \"#utility.yul\":8149:8340   */\n    tag_53:\n        /* \"#utility.yul\":8189:8192   */\n      0x00\n        /* \"#utility.yul\":8208:8228   */\n      tag_154\n        /* \"#utility.yul\":8226:8227   */\n      dup3\n        /* \"#utility.yul\":8208:8228   */\n      tag_58\n      jump\t// in\n    tag_154:\n        /* \"#utility.yul\":8203:8228   */\n      swap2\n      pop\n        /* \"#utility.yul\":8242:8262   */\n      tag_155\n        /* \"#utility.yul\":8260:8261   */\n      dup4\n        /* \"#utility.yul\":8242:8262   */\n      tag_58\n      jump\t// in\n    tag_155:\n        /* \"#utility.yul\":8237:8262   */\n      swap3\n      pop\n        /* \"#utility.yul\":8285:8286   */\n      dup3\n        /* \"#utility.yul\":8282:8283   */\n      dup3\n        /* \"#utility.yul\":8278:8287   */\n      add\n        /* \"#utility.yul\":8271:8287   */\n      swap1\n      pop\n        /* \"#utility.yul\":8306:8309   */\n      dup1\n        /* \"#utility.yul\":8303:8304   */\n      dup3\n        /* \"#utility.yul\":8300:8310   */\n      gt\n        /* \"#utility.yul\":8297:8333   */\n      iszero\n      tag_156\n      jumpi\n        /* \"#utility.yul\":8313:8331   */\n      tag_157\n      tag_80\n      jump\t// in\n    tag_157:\n        /* \"#utility.yul\":8297:8333   */\n    tag_156:\n        /* \"#utility.yul\":8149:8340   */\n      swap3\n      swap2\n      pop\n      pop\n      jump\t// out\n        /* \"#utility.yul\":8346:8678   */\n    tag_57:\n        /* \"#utility.yul\":8467:8471   */\n      0x00\n        /* \"#utility.yul\":8505:8507   */\n      0x40\n        /* \"#utility.yul\":8494:8503   */\n      dup3\n        /* \"#utility.yul\":8490:8508   */\n      add\n        /* \"#utility.yul\":8482:8508   */\n      swap1\n      pop\n        /* \"#utility.yul\":8518:8589   */\n      tag_159\n        /* \"#utility.yul\":8586:8587   */\n      0x00\n        /* \"#utility.yul\":8575:8584   */\n      dup4\n        /* \"#utility.yul\":8571:8588   */\n      add\n        /* \"#utility.yul\":8562:8568   */\n      dup6\n        /* \"#utility.yul\":8518:8589   */\n      tag_59\n      jump\t// in\n    tag_159:\n        /* \"#utility.yul\":8599:8671   */\n      tag_160\n        /* \"#utility.yul\":8667:8669   */\n      0x20\n        /* \"#utility.yul\":8656:8665   */\n      dup4\n        /* \"#utility.yul\":8652:8670   */\n      add\n        /* \"#utility.yul\":8643:8649   */\n      dup5\n        /* \"#utility.yul\":8599:8671   */\n      tag_59\n      jump\t// in\n    tag_160:\n        /* \"#utility.yul\":8346:8678   */\n      swap4\n      swap3\n      pop\n      pop\n      pop\n      jump\t// out\n\n    auxdata: 0xa2646970667358221220b6681a0a670e6e481e106b78c42629672a3931f8d8b25bc78eeac6e47fe046be64736f6c634300081a0033\n}\n",
				"bytecode": {
					"linkReferences": {},
					"object": "6080604052348015600e575f80fd5b5061083b8061001c5f395ff3fe608060405234801561000f575f80fd5b5060043610610060575f3560e01c806323f6178d1461006457806327506f53146100825780632e1a7d4d146100a057806381b2d07b146100d05780639ace38c2146100ee578063b6b55f2514610120575b5f80fd5b61006c610150565b604051610079919061044e565b60405180910390f35b61008a610156565b604051610097919061055e565b60405180910390f35b6100ba60048036038101906100b591906105ac565b6101cf565b6040516100c79190610647565b60405180910390f35b6100d86102e8565b6040516100e5919061044e565b60405180910390f35b610108600480360381019061010391906105ac565b6102f0565b60405161011793929190610667565b60405180910390f35b61013a600480360381019061013591906105ac565b610325565b6040516101479190610647565b60405180910390f35b60015481565b60606002805480602002602001604051908101604052809291908181526020015f905b828210156101c6578382905f5260205f2090600302016040518060600160405290815f82015481526020016001820154815260200160028201548152505081526020019060010190610179565b50505050905090565b6060815f541015610215576040517f08c379a000000000000000000000000000000000000000000000000000000000815260040161020c906106e6565b60405180910390fd5b815f808282546102259190610731565b9250508190555060015f81548092919061023e90610764565b91905055505f6040518060400160405280601981526020017f5472616e73616374696f6e206973207375636365737366756c00000000000000815250905060026040518060600160405280600154815260200185815260200142815250908060018154018082558091505060019003905f5260205f2090600302015f909190919091505f820151815f01556020820151816001015560408201518160020155505080915050919050565b5f8054905090565b600281815481106102ff575f80fd5b905f5260205f2090600302015f91509050805f0154908060010154908060020154905083565b6060815f8082825461033791906107ab565b9250508190555060015f81548092919061035090610764565b91905055505f6040518060400160405280601981526020017f5472616e73616374696f6e206973207375636365737366756c00000000000000815250905060026040518060600160405280600154815260200185815260200142815250908060018154018082558091505060019003905f5260205f2090600302015f909190919091505f820151815f0155602082015181600101556040820151816002015550506001547f33da4f9b82b3e18a281ca2cabbe2f076925692abb593b7ea3f850009e8ec977084426040516104259291906107de565b60405180910390a280915050919050565b5f819050919050565b61044881610436565b82525050565b5f6020820190506104615f83018461043f565b92915050565b5f81519050919050565b5f82825260208201905092915050565b5f819050602082019050919050565b61049981610436565b82525050565b606082015f8201516104b35f850182610490565b5060208201516104c66020850182610490565b5060408201516104d96040850182610490565b50505050565b5f6104ea838361049f565b60608301905092915050565b5f602082019050919050565b5f61050c82610467565b6105168185610471565b935061052183610481565b805f5b8381101561055157815161053888826104df565b9750610543836104f6565b925050600181019050610524565b5085935050505092915050565b5f6020820190508181035f8301526105768184610502565b905092915050565b5f80fd5b61058b81610436565b8114610595575f80fd5b50565b5f813590506105a681610582565b92915050565b5f602082840312156105c1576105c061057e565b5b5f6105ce84828501610598565b91505092915050565b5f81519050919050565b5f82825260208201905092915050565b8281835e5f83830152505050565b5f601f19601f8301169050919050565b5f610619826105d7565b61062381856105e1565b93506106338185602086016105f1565b61063c816105ff565b840191505092915050565b5f6020820190508181035f83015261065f818461060f565b905092915050565b5f60608201905061067a5f83018661043f565b610687602083018561043f565b610694604083018461043f565b949350505050565b7f596f75206172652062726f6b65210000000000000000000000000000000000005f82015250565b5f6106d0600e836105e1565b91506106db8261069c565b602082019050919050565b5f6020820190508181035f8301526106fd816106c4565b9050919050565b7f4e487b71000000000000000000000000000000000000000000000000000000005f52601160045260245ffd5b5f61073b82610436565b915061074683610436565b925082820390508181111561075e5761075d610704565b5b92915050565b5f61076e82610436565b91507fffffffffffffffffffffffffffffffffffffffffffffffffffffffffffffffff82036107a05761079f610704565b5b600182019050919050565b5f6107b582610436565b91506107c083610436565b92508282019050808211156107d8576107d7610704565b5b92915050565b5f6040820190506107f15f83018561043f565b6107fe602083018461043f565b939250505056fea2646970667358221220b6681a0a670e6e481e106b78c42629672a3931f8d8b25bc78eeac6e47fe046be64736f6c634300081a0033",
					"opcodes": "PUSH1 0x80 PUSH1 0x40 MSTORE CALLVALUE DUP1 ISZERO PUSH1 0xE JUMPI PUSH0 DUP1 REVERT JUMPDEST POP PUSH2 0x83B DUP1 PUSH2 0x1C PUSH0 CODECOPY PUSH0 RETURN INVALID PUSH1 0x80 PUSH1 0x40 MSTORE CALLVALUE DUP1 ISZERO PUSH2 0xF JUMPI PUSH0 DUP1 REVERT JUMPDEST POP PUSH1 0x4 CALLDATASIZE LT PUSH2 0x60 JUMPI PUSH0 CALLDATALOAD PUSH1 0xE0 SHR DUP1 PUSH4 0x23F6178D EQ PUSH2 0x64 JUMPI DUP1 PUSH4 0x27506F53 EQ PUSH2 0x82 JUMPI DUP1 PUSH4 0x2E1A7D4D EQ PUSH2 0xA0 JUMPI DUP1 PUSH4 0x81B2D07B EQ PUSH2 0xD0 JUMPI DUP1 PUSH4 0x9ACE38C2 EQ PUSH2 0xEE JUMPI DUP1 PUSH4 0xB6B55F25 EQ PUSH2 0x120 JUMPI JUMPDEST PUSH0 DUP1 REVERT JUMPDEST PUSH2 0x6C PUSH2 0x150 JUMP JUMPDEST PUSH1 0x40 MLOAD PUSH2 0x79 SWAP2 SWAP1 PUSH2 0x44E JUMP JUMPDEST PUSH1 0x40 MLOAD DUP1 SWAP2 SUB SWAP1 RETURN JUMPDEST PUSH2 0x8A PUSH2 0x156 JUMP JUMPDEST PUSH1 0x40 MLOAD PUSH2 0x97 SWAP2 SWAP1 PUSH2 0x55E JUMP JUMPDEST PUSH1 0x40 MLOAD DUP1 SWAP2 SUB SWAP1 RETURN JUMPDEST PUSH2 0xBA PUSH1 0x4 DUP1 CALLDATASIZE SUB DUP2 ADD SWAP1 PUSH2 0xB5 SWAP2 SWAP1 PUSH2 0x5AC JUMP JUMPDEST PUSH2 0x1CF JUMP JUMPDEST PUSH1 0x40 MLOAD PUSH2 0xC7 SWAP2 SWAP1 PUSH2 0x647 JUMP JUMPDEST PUSH1 0x40 MLOAD DUP1 SWAP2 SUB SWAP1 RETURN JUMPDEST PUSH2 0xD8 PUSH2 0x2E8 JUMP JUMPDEST PUSH1 0x40 MLOAD PUSH2 0xE5 SWAP2 SWAP1 PUSH2 0x44E JUMP JUMPDEST PUSH1 0x40 MLOAD DUP1 SWAP2 SUB SWAP1 RETURN JUMPDEST PUSH2 0x108 PUSH1 0x4 DUP1 CALLDATASIZE SUB DUP2 ADD SWAP1 PUSH2 0x103 SWAP2 SWAP1 PUSH2 0x5AC JUMP JUMPDEST PUSH2 0x2F0 JUMP JUMPDEST PUSH1 0x40 MLOAD PUSH2 0x117 SWAP4 SWAP3 SWAP2 SWAP1 PUSH2 0x667 JUMP JUMPDEST PUSH1 0x40 MLOAD DUP1 SWAP2 SUB SWAP1 RETURN JUMPDEST PUSH2 0x13A PUSH1 0x4 DUP1 CALLDATASIZE SUB DUP2 ADD SWAP1 PUSH2 0x135 SWAP2 SWAP1 PUSH2 0x5AC JUMP JUMPDEST PUSH2 0x325 JUMP JUMPDEST PUSH1 0x40 MLOAD PUSH2 0x147 SWAP2 SWAP1 PUSH2 0x647 JUMP JUMPDEST PUSH1 0x40 MLOAD DUP1 SWAP2 SUB SWAP1 RETURN JUMPDEST PUSH1 0x1 SLOAD DUP2 JUMP JUMPDEST PUSH1 0x60 PUSH1 0x2 DUP1 SLOAD DUP1 PUSH1 0x20 MUL PUSH1 0x20 ADD PUSH1 0x40 MLOAD SWAP1 DUP2 ADD PUSH1 0x40 MSTORE DUP1 SWAP3 SWAP2 SWAP1 DUP2 DUP2 MSTORE PUSH1 0x20 ADD PUSH0 SWAP1 JUMPDEST DUP3 DUP3 LT ISZERO PUSH2 0x1C6 JUMPI DUP4 DUP3 SWAP1 PUSH0 MSTORE PUSH1 0x20 PUSH0 KECCAK256 SWAP1 PUSH1 0x3 MUL ADD PUSH1 0x40 MLOAD DUP1 PUSH1 0x60 ADD PUSH1 0x40 MSTORE SWAP1 DUP2 PUSH0 DUP3 ADD SLOAD DUP2 MSTORE PUSH1 0x20 ADD PUSH1 0x1 DUP3 ADD SLOAD DUP2 MSTORE PUSH1 0x20 ADD PUSH1 0x2 DUP3 ADD SLOAD DUP2 MSTORE POP POP DUP2 MSTORE PUSH1 0x20 ADD SWAP1 PUSH1 0x1 ADD SWAP1 PUSH2 0x179 JUMP JUMPDEST POP POP POP POP SWAP1 POP SWAP1 JUMP JUMPDEST PUSH1 0x60 DUP2 PUSH0 SLOAD LT ISZERO PUSH2 0x215 JUMPI PUSH1 0x40 MLOAD PUSH32 0x8C379A000000000000000000000000000000000000000000000000000000000 DUP2 MSTORE PUSH1 0x4 ADD PUSH2 0x20C SWAP1 PUSH2 0x6E6 JUMP JUMPDEST PUSH1 0x40 MLOAD DUP1 SWAP2 SUB SWAP1 REVERT JUMPDEST DUP2 PUSH0 DUP1 DUP3 DUP3 SLOAD PUSH2 0x225 SWAP2 SWAP1 PUSH2 0x731 JUMP JUMPDEST SWAP3 POP POP DUP2 SWAP1 SSTORE POP PUSH1 0x1 PUSH0 DUP2 SLOAD DUP1 SWAP3 SWAP2 SWAP1 PUSH2 0x23E SWAP1 PUSH2 0x764 JUMP JUMPDEST SWAP2 SWAP1 POP SSTORE POP PUSH0 PUSH1 0x40 MLOAD DUP1 PUSH1 0x40 ADD PUSH1 0x40 MSTORE DUP1 PUSH1 0x19 DUP2 MSTORE PUSH1 0x20 ADD PUSH32 0x5472616E73616374696F6E206973207375636365737366756C00000000000000 DUP2 MSTORE POP SWAP1 POP PUSH1 0x2 PUSH1 0x40 MLOAD DUP1 PUSH1 0x60 ADD PUSH1 0x40 MSTORE DUP1 PUSH1 0x1 SLOAD DUP2 MSTORE PUSH1 0x20 ADD DUP6 DUP2 MSTORE PUSH1 0x20 ADD TIMESTAMP DUP2 MSTORE POP SWAP1 DUP1 PUSH1 0x1 DUP2 SLOAD ADD DUP1 DUP3 SSTORE DUP1 SWAP2 POP POP PUSH1 0x1 SWAP1 SUB SWAP1 PUSH0 MSTORE PUSH1 0x20 PUSH0 KECCAK256 SWAP1 PUSH1 0x3 MUL ADD PUSH0 SWAP1 SWAP2 SWAP1 SWAP2 SWAP1 SWAP2 POP PUSH0 DUP3 ADD MLOAD DUP2 PUSH0 ADD SSTORE PUSH1 0x20 DUP3 ADD MLOAD DUP2 PUSH1 0x1 ADD SSTORE PUSH1 0x40 DUP3 ADD MLOAD DUP2 PUSH1 0x2 ADD SSTORE POP POP DUP1 SWAP2 POP POP SWAP2 SWAP1 POP JUMP JUMPDEST PUSH0 DUP1 SLOAD SWAP1 POP SWAP1 JUMP JUMPDEST PUSH1 0x2 DUP2 DUP2 SLOAD DUP2 LT PUSH2 0x2FF JUMPI PUSH0 DUP1 REVERT JUMPDEST SWAP1 PUSH0 MSTORE PUSH1 0x20 PUSH0 KECCAK256 SWAP1 PUSH1 0x3 MUL ADD PUSH0 SWAP2 POP SWAP1 POP DUP1 PUSH0 ADD SLOAD SWAP1 DUP1 PUSH1 0x1 ADD SLOAD SWAP1 DUP1 PUSH1 0x2 ADD SLOAD SWAP1 POP DUP4 JUMP JUMPDEST PUSH1 0x60 DUP2 PUSH0 DUP1 DUP3 DUP3 SLOAD PUSH2 0x337 SWAP2 SWAP1 PUSH2 0x7AB JUMP JUMPDEST SWAP3 POP POP DUP2 SWAP1 SSTORE POP PUSH1 0x1 PUSH0 DUP2 SLOAD DUP1 SWAP3 SWAP2 SWAP1 PUSH2 0x350 SWAP1 PUSH2 0x764 JUMP JUMPDEST SWAP2 SWAP1 POP SSTORE POP PUSH0 PUSH1 0x40 MLOAD DUP1 PUSH1 0x40 ADD PUSH1 0x40 MSTORE DUP1 PUSH1 0x19 DUP2 MSTORE PUSH1 0x20 ADD PUSH32 0x5472616E73616374696F6E206973207375636365737366756C00000000000000 DUP2 MSTORE POP SWAP1 POP PUSH1 0x2 PUSH1 0x40 MLOAD DUP1 PUSH1 0x60 ADD PUSH1 0x40 MSTORE DUP1 PUSH1 0x1 SLOAD DUP2 MSTORE PUSH1 0x20 ADD DUP6 DUP2 MSTORE PUSH1 0x20 ADD TIMESTAMP DUP2 MSTORE POP SWAP1 DUP1 PUSH1 0x1 DUP2 SLOAD ADD DUP1 DUP3 SSTORE DUP1 SWAP2 POP POP PUSH1 0x1 SWAP1 SUB SWAP1 PUSH0 MSTORE PUSH1 0x20 PUSH0 KECCAK256 SWAP1 PUSH1 0x3 MUL ADD PUSH0 SWAP1 SWAP2 SWAP1 SWAP2 SWAP1 SWAP2 POP PUSH0 DUP3 ADD MLOAD DUP2 PUSH0 ADD SSTORE PUSH1 0x20 DUP3 ADD MLOAD DUP2 PUSH1 0x1 ADD SSTORE PUSH1 0x40 DUP3 ADD MLOAD DUP2 PUSH1 0x2 ADD SSTORE POP POP PUSH1 0x1 SLOAD PUSH32 0x33DA4F9B82B3E18A281CA2CABBE2F076925692ABB593B7EA3F850009E8EC9770 DUP5 TIMESTAMP PUSH1 0x40 MLOAD PUSH2 0x425 SWAP3 SWAP2 SWAP1 PUSH2 0x7DE JUMP JUMPDEST PUSH1 0x40 MLOAD DUP1 SWAP2 SUB SWAP1 LOG2 DUP1 SWAP2 POP POP SWAP2 SWAP1 POP JUMP JUMPDEST PUSH0 DUP2 SWAP1 POP SWAP2 SWAP1 POP JUMP JUMPDEST PUSH2 0x448 DUP2 PUSH2 0x436 JUMP JUMPDEST DUP3 MSTORE POP POP JUMP JUMPDEST PUSH0 PUSH1 0x20 DUP3 ADD SWAP1 POP PUSH2 0x461 PUSH0 DUP4 ADD DUP5 PUSH2 0x43F JUMP JUMPDEST SWAP3 SWAP2 POP POP JUMP JUMPDEST PUSH0 DUP2 MLOAD SWAP1 POP SWAP2 SWAP1 POP JUMP JUMPDEST PUSH0 DUP3 DUP3 MSTORE PUSH1 0x20 DUP3 ADD SWAP1 POP SWAP3 SWAP2 POP POP JUMP JUMPDEST PUSH0 DUP2 SWAP1 POP PUSH1 0x20 DUP3 ADD SWAP1 POP SWAP2 SWAP1 POP JUMP JUMPDEST PUSH2 0x499 DUP2 PUSH2 0x436 JUMP JUMPDEST DUP3 MSTORE POP POP JUMP JUMPDEST PUSH1 0x60 DUP3 ADD PUSH0 DUP3 ADD MLOAD PUSH2 0x4B3 PUSH0 DUP6 ADD DUP3 PUSH2 0x490 JUMP JUMPDEST POP PUSH1 0x20 DUP3 ADD MLOAD PUSH2 0x4C6 PUSH1 0x20 DUP6 ADD DUP3 PUSH2 0x490 JUMP JUMPDEST POP PUSH1 0x40 DUP3 ADD MLOAD PUSH2 0x4D9 PUSH1 0x40 DUP6 ADD DUP3 PUSH2 0x490 JUMP JUMPDEST POP POP POP POP JUMP JUMPDEST PUSH0 PUSH2 0x4EA DUP4 DUP4 PUSH2 0x49F JUMP JUMPDEST PUSH1 0x60 DUP4 ADD SWAP1 POP SWAP3 SWAP2 POP POP JUMP JUMPDEST PUSH0 PUSH1 0x20 DUP3 ADD SWAP1 POP SWAP2 SWAP1 POP JUMP JUMPDEST PUSH0 PUSH2 0x50C DUP3 PUSH2 0x467 JUMP JUMPDEST PUSH2 0x516 DUP2 DUP6 PUSH2 0x471 JUMP JUMPDEST SWAP4 POP PUSH2 0x521 DUP4 PUSH2 0x481 JUMP JUMPDEST DUP1 PUSH0 JUMPDEST DUP4 DUP2 LT ISZERO PUSH2 0x551 JUMPI DUP2 MLOAD PUSH2 0x538 DUP9 DUP3 PUSH2 0x4DF JUMP JUMPDEST SWAP8 POP PUSH2 0x543 DUP4 PUSH2 0x4F6 JUMP JUMPDEST SWAP3 POP POP PUSH1 0x1 DUP2 ADD SWAP1 POP PUSH2 0x524 JUMP JUMPDEST POP DUP6 SWAP4 POP POP POP POP SWAP3 SWAP2 POP POP JUMP JUMPDEST PUSH0 PUSH1 0x20 DUP3 ADD SWAP1 POP DUP2 DUP2 SUB PUSH0 DUP4 ADD MSTORE PUSH2 0x576 DUP2 DUP5 PUSH2 0x502 JUMP JUMPDEST SWAP1 POP SWAP3 SWAP2 POP POP JUMP JUMPDEST PUSH0 DUP1 REVERT JUMPDEST PUSH2 0x58B DUP2 PUSH2 0x436 JUMP JUMPDEST DUP2 EQ PUSH2 0x595 JUMPI PUSH0 DUP1 REVERT JUMPDEST POP JUMP JUMPDEST PUSH0 DUP2 CALLDATALOAD SWAP1 POP PUSH2 0x5A6 DUP2 PUSH2 0x582 JUMP JUMPDEST SWAP3 SWAP2 POP POP JUMP JUMPDEST PUSH0 PUSH1 0x20 DUP3 DUP5 SUB SLT ISZERO PUSH2 0x5C1 JUMPI PUSH2 0x5C0 PUSH2 0x57E JUMP JUMPDEST JUMPDEST PUSH0 PUSH2 0x5CE DUP5 DUP3 DUP6 ADD PUSH2 0x598 JUMP JUMPDEST SWAP2 POP POP SWAP3 SWAP2 POP POP JUMP JUMPDEST PUSH0 DUP2 MLOAD SWAP1 POP SWAP2 SWAP1 POP JUMP JUMPDEST PUSH0 DUP3 DUP3 MSTORE PUSH1 0x20 DUP3 ADD SWAP1 POP SWAP3 SWAP2 POP POP JUMP JUMPDEST DUP3 DUP2 DUP4 MCOPY PUSH0 DUP4 DUP4 ADD MSTORE POP POP POP JUMP JUMPDEST PUSH0 PUSH1 0x1F NOT PUSH1 0x1F DUP4 ADD AND SWAP1 POP SWAP2 SWAP1 POP JUMP JUMPDEST PUSH0 PUSH2 0x619 DUP3 PUSH2 0x5D7 JUMP JUMPDEST PUSH2 0x623 DUP2 DUP6 PUSH2 0x5E1 JUMP JUMPDEST SWAP4 POP PUSH2 0x633 DUP2 DUP6 PUSH1 0x20 DUP7 ADD PUSH2 0x5F1 JUMP JUMPDEST PUSH2 0x63C DUP2 PUSH2 0x5FF JUMP JUMPDEST DUP5 ADD SWAP2 POP POP SWAP3 SWAP2 POP POP JUMP JUMPDEST PUSH0 PUSH1 0x20 DUP3 ADD SWAP1 POP DUP2 DUP2 SUB PUSH0 DUP4 ADD MSTORE PUSH2 0x65F DUP2 DUP5 PUSH2 0x60F JUMP JUMPDEST SWAP1 POP SWAP3 SWAP2 POP POP JUMP JUMPDEST PUSH0 PUSH1 0x60 DUP3 ADD SWAP1 POP PUSH2 0x67A PUSH0 DUP4 ADD DUP7 PUSH2 0x43F JUMP JUMPDEST PUSH2 0x687 PUSH1 0x20 DUP4 ADD DUP6 PUSH2 0x43F JUMP JUMPDEST PUSH2 0x694 PUSH1 0x40 DUP4 ADD DUP5 PUSH2 0x43F JUMP JUMPDEST SWAP5 SWAP4 POP POP POP POP JUMP JUMPDEST PUSH32 0x596F75206172652062726F6B6521000000000000000000000000000000000000 PUSH0 DUP3 ADD MSTORE POP JUMP JUMPDEST PUSH0 PUSH2 0x6D0 PUSH1 0xE DUP4 PUSH2 0x5E1 JUMP JUMPDEST SWAP2 POP PUSH2 0x6DB DUP3 PUSH2 0x69C JUMP JUMPDEST PUSH1 0x20 DUP3 ADD SWAP1 POP SWAP2 SWAP1 POP JUMP JUMPDEST PUSH0 PUSH1 0x20 DUP3 ADD SWAP1 POP DUP2 DUP2 SUB PUSH0 DUP4 ADD MSTORE PUSH2 0x6FD DUP2 PUSH2 0x6C4 JUMP JUMPDEST SWAP1 POP SWAP2 SWAP1 POP JUMP JUMPDEST PUSH32 0x4E487B7100000000000000000000000000000000000000000000000000000000 PUSH0 MSTORE PUSH1 0x11 PUSH1 0x4 MSTORE PUSH1 0x24 PUSH0 REVERT JUMPDEST PUSH0 PUSH2 0x73B DUP3 PUSH2 0x436 JUMP JUMPDEST SWAP2 POP PUSH2 0x746 DUP4 PUSH2 0x436 JUMP JUMPDEST SWAP3 POP DUP3 DUP3 SUB SWAP1 POP DUP2 DUP2 GT ISZERO PUSH2 0x75E JUMPI PUSH2 0x75D PUSH2 0x704 JUMP JUMPDEST JUMPDEST SWAP3 SWAP2 POP POP JUMP JUMPDEST PUSH0 PUSH2 0x76E DUP3 PUSH2 0x436 JUMP JUMPDEST SWAP2 POP PUSH32 0xFFFFFFFFFFFFFFFFFFFFFFFFFFFFFFFFFFFFFFFFFFFFFFFFFFFFFFFFFFFFFFFF DUP3 SUB PUSH2 0x7A0 JUMPI PUSH2 0x79F PUSH2 0x704 JUMP JUMPDEST JUMPDEST PUSH1 0x1 DUP3 ADD SWAP1 POP SWAP2 SWAP1 POP JUMP JUMPDEST PUSH0 PUSH2 0x7B5 DUP3 PUSH2 0x436 JUMP JUMPDEST SWAP2 POP PUSH2 0x7C0 DUP4 PUSH2 0x436 JUMP JUMPDEST SWAP3 POP DUP3 DUP3 ADD SWAP1 POP DUP1 DUP3 GT ISZERO PUSH2 0x7D8 JUMPI PUSH2 0x7D7 PUSH2 0x704 JUMP JUMPDEST JUMPDEST SWAP3 SWAP2 POP POP JUMP JUMPDEST PUSH0 PUSH1 0x40 DUP3 ADD SWAP1 POP PUSH2 0x7F1 PUSH0 DUP4 ADD DUP6 PUSH2 0x43F JUMP JUMPDEST PUSH2 0x7FE PUSH1 0x20 DUP4 ADD DUP5 PUSH2 0x43F JUMP JUMPDEST SWAP4 SWAP3 POP POP POP JUMP INVALID LOG2 PUSH5 0x6970667358 0x22 SLT KECCAK256 0xB6 PUSH9 0x1A0A670E6E481E106B PUSH25 0xC42629672A3931F8D8B25BC78EEAC6E47FE046BE64736F6C63 NUMBER STOP ADDMOD BYTE STOP CALLER "
				},
				"gasEstimates": {
					"creation": {
						"codeDepositCost": "421400",
						"executionCost": "453",
						"totalCost": "421853"
					},
					"external": {
						"deposit(uint256)": "infinite",
						"getAllTransactions()": "infinite",
						"showBalance()": "2476",
						"transactions(uint256)": "infinite",
						"trxnId()": "2403",
						"withdraw(uint256)": "infinite"
					}
				},
				"methodIdentifiers": {
					"deposit(uint256)": "b6b55f25",
					"getAllTransactions()": "27506f53",
					"showBalance()": "81b2d07b",
					"transactions(uint256)": "9ace38c2",
					"trxnId()": "23f6178d",
					"withdraw(uint256)": "2e1a7d4d"
				}
			},
			"storageLayout": {
				"storage": [
					{
						"astId": 3,
						"contract": "contracts/SusuBox.sol:SusuBox",
						"label": "balance",
						"offset": 0,
						"slot": "0",
						"type": "t_uint256"
					},
					{
						"astId": 5,
						"contract": "contracts/SusuBox.sol:SusuBox",
						"label": "trxnId",
						"offset": 0,
						"slot": "1",
						"type": "t_uint256"
					},
					{
						"astId": 24,
						"contract": "contracts/SusuBox.sol:SusuBox",
						"label": "transactions",
						"offset": 0,
						"slot": "2",
						"type": "t_array(t_struct(TransactionStruct)20_storage)dyn_storage"
					}
				],
				"types": {
					"t_array(t_struct(TransactionStruct)20_storage)dyn_storage": {
						"base": "t_struct(TransactionStruct)20_storage",
						"encoding": "dynamic_array",
						"label": "struct SusuBox.TransactionStruct[]",
						"numberOfBytes": "32"
					},
					"t_struct(TransactionStruct)20_storage": {
						"encoding": "inplace",
						"label": "struct SusuBox.TransactionStruct",
						"members": [
							{
								"astId": 15,
								"contract": "contracts/SusuBox.sol:SusuBox",
								"label": "id",
								"offset": 0,
								"slot": "0",
								"type": "t_uint256"
							},
							{
								"astId": 17,
								"contract": "contracts/SusuBox.sol:SusuBox",
								"label": "amount",
								"offset": 0,
								"slot": "1",
								"type": "t_uint256"
							},
							{
								"astId": 19,
								"contract": "contracts/SusuBox.sol:SusuBox",
								"label": "timeStamp",
								"offset": 0,
								"slot": "2",
								"type": "t_uint256"
							}
						],
						"numberOfBytes": "96"
					},
					"t_uint256": {
						"encoding": "inplace",
						"label": "uint256",
						"numberOfBytes": "32"
					}
				}
			},
			"userdoc": {
				"kind": "user",
				"methods": {},
				"version": 1
			}
		}
	}
}